{
  "address": "0x5FbDB2315678afecb367f032d93F642f64180aa3",
  "abi": [
    {
      "inputs": [
        {
          "internalType": "string",
          "name": "_name",
          "type": "string"
        },
        {
          "internalType": "string",
          "name": "_symbol",
          "type": "string"
        },
        {
          "internalType": "uint8",
          "name": "_decimals",
          "type": "uint8"
        }
      ],
      "stateMutability": "nonpayable",
      "type": "constructor"
    },
    {
      "inputs": [
        {
          "internalType": "address",
          "name": "spender",
          "type": "address"
        },
        {
          "internalType": "uint256",
          "name": "allowance",
          "type": "uint256"
        },
        {
          "internalType": "uint256",
          "name": "needed",
          "type": "uint256"
        }
      ],
      "name": "ERC20InsufficientAllowance",
      "type": "error"
    },
    {
      "inputs": [
        {
          "internalType": "address",
          "name": "sender",
          "type": "address"
        },
        {
          "internalType": "uint256",
          "name": "balance",
          "type": "uint256"
        },
        {
          "internalType": "uint256",
          "name": "needed",
          "type": "uint256"
        }
      ],
      "name": "ERC20InsufficientBalance",
      "type": "error"
    },
    {
      "inputs": [
        {
          "internalType": "address",
          "name": "approver",
          "type": "address"
        }
      ],
      "name": "ERC20InvalidApprover",
      "type": "error"
    },
    {
      "inputs": [
        {
          "internalType": "address",
          "name": "receiver",
          "type": "address"
        }
      ],
      "name": "ERC20InvalidReceiver",
      "type": "error"
    },
    {
      "inputs": [
        {
          "internalType": "address",
          "name": "sender",
          "type": "address"
        }
      ],
      "name": "ERC20InvalidSender",
      "type": "error"
    },
    {
      "inputs": [
        {
          "internalType": "address",
          "name": "spender",
          "type": "address"
        }
      ],
      "name": "ERC20InvalidSpender",
      "type": "error"
    },
    {
      "anonymous": false,
      "inputs": [
        {
          "indexed": true,
          "internalType": "address",
          "name": "owner",
          "type": "address"
        },
        {
          "indexed": true,
          "internalType": "address",
          "name": "spender",
          "type": "address"
        },
        {
          "indexed": false,
          "internalType": "uint256",
          "name": "value",
          "type": "uint256"
        }
      ],
      "name": "Approval",
      "type": "event"
    },
    {
      "anonymous": false,
      "inputs": [
        {
          "indexed": true,
          "internalType": "address",
          "name": "from",
          "type": "address"
        },
        {
          "indexed": true,
          "internalType": "address",
          "name": "to",
          "type": "address"
        },
        {
          "indexed": false,
          "internalType": "uint256",
          "name": "value",
          "type": "uint256"
        }
      ],
      "name": "Transfer",
      "type": "event"
    },
    {
      "inputs": [],
      "name": "DECIMALS",
      "outputs": [
        {
          "internalType": "uint8",
          "name": "",
          "type": "uint8"
        }
      ],
      "stateMutability": "view",
      "type": "function"
    },
    {
      "inputs": [
        {
          "internalType": "address",
          "name": "owner",
          "type": "address"
        },
        {
          "internalType": "address",
          "name": "spender",
          "type": "address"
        }
      ],
      "name": "allowance",
      "outputs": [
        {
          "internalType": "uint256",
          "name": "",
          "type": "uint256"
        }
      ],
      "stateMutability": "view",
      "type": "function"
    },
    {
      "inputs": [
        {
          "internalType": "address",
          "name": "spender",
          "type": "address"
        },
        {
          "internalType": "uint256",
          "name": "value",
          "type": "uint256"
        }
      ],
      "name": "approve",
      "outputs": [
        {
          "internalType": "bool",
          "name": "",
          "type": "bool"
        }
      ],
      "stateMutability": "nonpayable",
      "type": "function"
    },
    {
      "inputs": [
        {
          "internalType": "address",
          "name": "account",
          "type": "address"
        }
      ],
      "name": "balanceOf",
      "outputs": [
        {
          "internalType": "uint256",
          "name": "",
          "type": "uint256"
        }
      ],
      "stateMutability": "view",
      "type": "function"
    },
    {
      "inputs": [],
      "name": "decimals",
      "outputs": [
        {
          "internalType": "uint8",
          "name": "",
          "type": "uint8"
        }
      ],
      "stateMutability": "view",
      "type": "function"
    },
    {
      "inputs": [
        {
          "internalType": "address",
          "name": "to",
          "type": "address"
        },
        {
          "internalType": "uint256",
          "name": "amount",
          "type": "uint256"
        }
      ],
      "name": "mint",
      "outputs": [],
      "stateMutability": "nonpayable",
      "type": "function"
    },
    {
      "inputs": [],
      "name": "name",
      "outputs": [
        {
          "internalType": "string",
          "name": "",
          "type": "string"
        }
      ],
      "stateMutability": "view",
      "type": "function"
    },
    {
      "inputs": [],
      "name": "symbol",
      "outputs": [
        {
          "internalType": "string",
          "name": "",
          "type": "string"
        }
      ],
      "stateMutability": "view",
      "type": "function"
    },
    {
      "inputs": [],
      "name": "totalSupply",
      "outputs": [
        {
          "internalType": "uint256",
          "name": "",
          "type": "uint256"
        }
      ],
      "stateMutability": "view",
      "type": "function"
    },
    {
      "inputs": [
        {
          "internalType": "address",
          "name": "to",
          "type": "address"
        },
        {
          "internalType": "uint256",
          "name": "value",
          "type": "uint256"
        }
      ],
      "name": "transfer",
      "outputs": [
        {
          "internalType": "bool",
          "name": "",
          "type": "bool"
        }
      ],
      "stateMutability": "nonpayable",
      "type": "function"
    },
    {
      "inputs": [
        {
          "internalType": "address",
          "name": "from",
          "type": "address"
        },
        {
          "internalType": "address",
          "name": "to",
          "type": "address"
        },
        {
          "internalType": "uint256",
          "name": "value",
          "type": "uint256"
        }
      ],
      "name": "transferFrom",
      "outputs": [
        {
          "internalType": "bool",
          "name": "",
          "type": "bool"
        }
      ],
      "stateMutability": "nonpayable",
      "type": "function"
    }
  ],
  "transactionHash": "0xfba8d06524a6e90d2ccda033a6208d3dd25761d84d3833650b37f399c5288e31",
  "args": [
    "TestERC20_B2B",
    "TEST_B2B",
    10
  ],
  "numDeployments": 1,
  "solcInputHash": "06dd9104db4829057d23539cdf0bdbea",
  "bytecode": "0x608060405234801561001057600080fd5b50604051611ac1380380611ac1833981810160405281019061003291906104fd565b8282816003908161004391906107a9565b50806004908161005391906107a9565b50505061007f3382600a61006791906109dd565b6103e86100749190610a28565b6100a260201b60201c565b80600560006101000a81548160ff021916908360ff160217905550505050610b5b565b600073ffffffffffffffffffffffffffffffffffffffff168273ffffffffffffffffffffffffffffffffffffffff16036101145760006040517fec442f0500000000000000000000000000000000000000000000000000000000815260040161010b9190610aab565b60405180910390fd5b6101266000838361012a60201b60201c565b5050565b600073ffffffffffffffffffffffffffffffffffffffff168373ffffffffffffffffffffffffffffffffffffffff160361017c5780600260008282546101709190610ac6565b9250508190555061024f565b60008060008573ffffffffffffffffffffffffffffffffffffffff1673ffffffffffffffffffffffffffffffffffffffff16815260200190815260200160002054905081811015610208578381836040517fe450d38c0000000000000000000000000000000000000000000000000000000081526004016101ff93929190610b09565b60405180910390fd5b8181036000808673ffffffffffffffffffffffffffffffffffffffff1673ffffffffffffffffffffffffffffffffffffffff16815260200190815260200160002081905550505b600073ffffffffffffffffffffffffffffffffffffffff168273ffffffffffffffffffffffffffffffffffffffff160361029857806002600082825403925050819055506102e5565b806000808473ffffffffffffffffffffffffffffffffffffffff1673ffffffffffffffffffffffffffffffffffffffff168152602001908152602001600020600082825401925050819055505b8173ffffffffffffffffffffffffffffffffffffffff168373ffffffffffffffffffffffffffffffffffffffff167fddf252ad1be2c89b69c2b068fc378daa952ba7f163c4a11628f55a4df523b3ef836040516103429190610b40565b60405180910390a3505050565b6000604051905090565b600080fd5b600080fd5b600080fd5b600080fd5b6000601f19601f8301169050919050565b7f4e487b7100000000000000000000000000000000000000000000000000000000600052604160045260246000fd5b6103b68261036d565b810181811067ffffffffffffffff821117156103d5576103d461037e565b5b80604052505050565b60006103e861034f565b90506103f482826103ad565b919050565b600067ffffffffffffffff8211156104145761041361037e565b5b61041d8261036d565b9050602081019050919050565b60005b8381101561044857808201518184015260208101905061042d565b60008484015250505050565b6000610467610462846103f9565b6103de565b90508281526020810184848401111561048357610482610368565b5b61048e84828561042a565b509392505050565b600082601f8301126104ab576104aa610363565b5b81516104bb848260208601610454565b91505092915050565b600060ff82169050919050565b6104da816104c4565b81146104e557600080fd5b50565b6000815190506104f7816104d1565b92915050565b60008060006060848603121561051657610515610359565b5b600084015167ffffffffffffffff8111156105345761053361035e565b5b61054086828701610496565b935050602084015167ffffffffffffffff8111156105615761056061035e565b5b61056d86828701610496565b925050604061057e868287016104e8565b9150509250925092565b600081519050919050565b7f4e487b7100000000000000000000000000000000000000000000000000000000600052602260045260246000fd5b600060028204905060018216806105da57607f821691505b6020821081036105ed576105ec610593565b5b50919050565b60008190508160005260206000209050919050565b60006020601f8301049050919050565b600082821b905092915050565b6000600883026106557fffffffffffffffffffffffffffffffffffffffffffffffffffffffffffffffff82610618565b61065f8683610618565b95508019841693508086168417925050509392505050565b6000819050919050565b6000819050919050565b60006106a66106a161069c84610677565b610681565b610677565b9050919050565b6000819050919050565b6106c08361068b565b6106d46106cc826106ad565b848454610625565b825550505050565b600090565b6106e96106dc565b6106f48184846106b7565b505050565b5b818110156107185761070d6000826106e1565b6001810190506106fa565b5050565b601f82111561075d5761072e816105f3565b61073784610608565b81016020851015610746578190505b61075a61075285610608565b8301826106f9565b50505b505050565b600082821c905092915050565b600061078060001984600802610762565b1980831691505092915050565b6000610799838361076f565b9150826002028217905092915050565b6107b282610588565b67ffffffffffffffff8111156107cb576107ca61037e565b5b6107d582546105c2565b6107e082828561071c565b600060209050601f8311600181146108135760008415610801578287015190505b61080b858261078d565b865550610873565b601f198416610821866105f3565b60005b8281101561084957848901518255600182019150602085019450602081019050610824565b868310156108665784890151610862601f89168261076f565b8355505b6001600288020188555050505b505050505050565b7f4e487b7100000000000000000000000000000000000000000000000000000000600052601160045260246000fd5b60008160011c9050919050565b6000808291508390505b6001851115610901578086048111156108dd576108dc61087b565b5b60018516156108ec5780820291505b80810290506108fa856108aa565b94506108c1565b94509492505050565b60008261091a57600190506109d6565b8161092857600090506109d6565b816001811461093e576002811461094857610977565b60019150506109d6565b60ff84111561095a5761095961087b565b5b8360020a9150848211156109715761097061087b565b5b506109d6565b5060208310610133831016604e8410600b84101617156109ac5782820a9050838111156109a7576109a661087b565b5b6109d6565b6109b984848460016108b7565b925090508184048111156109d0576109cf61087b565b5b81810290505b9392505050565b60006109e882610677565b91506109f3836104c4565b9250610a207fffffffffffffffffffffffffffffffffffffffffffffffffffffffffffffffff848461090a565b905092915050565b6000610a3382610677565b9150610a3e83610677565b9250828202610a4c81610677565b91508282048414831517610a6357610a6261087b565b5b5092915050565b600073ffffffffffffffffffffffffffffffffffffffff82169050919050565b6000610a9582610a6a565b9050919050565b610aa581610a8a565b82525050565b6000602082019050610ac06000830184610a9c565b92915050565b6000610ad182610677565b9150610adc83610677565b9250828201905080821115610af457610af361087b565b5b92915050565b610b0381610677565b82525050565b6000606082019050610b1e6000830186610a9c565b610b2b6020830185610afa565b610b386040830184610afa565b949350505050565b6000602082019050610b556000830184610afa565b92915050565b610f5780610b6a6000396000f3fe608060405234801561001057600080fd5b50600436106100a95760003560e01c8063313ce56711610071578063313ce5671461016857806340c10f191461018657806370a08231146101a257806395d89b41146101d2578063a9059cbb146101f0578063dd62ed3e14610220576100a9565b806306fdde03146100ae578063095ea7b3146100cc57806318160ddd146100fc57806323b872dd1461011a5780632e0f26251461014a575b600080fd5b6100b6610250565b6040516100c39190610bab565b60405180910390f35b6100e660048036038101906100e19190610c66565b6102e2565b6040516100f39190610cc1565b60405180910390f35b610104610305565b6040516101119190610ceb565b60405180910390f35b610134600480360381019061012f9190610d06565b61030f565b6040516101419190610cc1565b60405180910390f35b61015261033e565b60405161015f9190610d75565b60405180910390f35b610170610351565b60405161017d9190610d75565b60405180910390f35b6101a0600480360381019061019b9190610c66565b610368565b005b6101bc60048036038101906101b79190610d90565b610376565b6040516101c99190610ceb565b60405180910390f35b6101da6103be565b6040516101e79190610bab565b60405180910390f35b61020a60048036038101906102059190610c66565b610450565b6040516102179190610cc1565b60405180910390f35b61023a60048036038101906102359190610dbd565b610473565b6040516102479190610ceb565b60405180910390f35b60606003805461025f90610e2c565b80601f016020809104026020016040519081016040528092919081815260200182805461028b90610e2c565b80156102d85780601f106102ad576101008083540402835291602001916102d8565b820191906000526020600020905b8154815290600101906020018083116102bb57829003601f168201915b5050505050905090565b6000806102ed6104fa565b90506102fa818585610502565b600191505092915050565b6000600254905090565b60008061031a6104fa565b9050610327858285610514565b6103328585856105a9565b60019150509392505050565b600560009054906101000a900460ff1681565b6000600560009054906101000a900460ff16905090565b610372828261069d565b5050565b60008060008373ffffffffffffffffffffffffffffffffffffffff1673ffffffffffffffffffffffffffffffffffffffff168152602001908152602001600020549050919050565b6060600480546103cd90610e2c565b80601f01602080910402602001604051908101604052809291908181526020018280546103f990610e2c565b80156104465780601f1061041b57610100808354040283529160200191610446565b820191906000526020600020905b81548152906001019060200180831161042957829003601f168201915b5050505050905090565b60008061045b6104fa565b90506104688185856105a9565b600191505092915050565b6000600160008473ffffffffffffffffffffffffffffffffffffffff1673ffffffffffffffffffffffffffffffffffffffff16815260200190815260200160002060008373ffffffffffffffffffffffffffffffffffffffff1673ffffffffffffffffffffffffffffffffffffffff16815260200190815260200160002054905092915050565b600033905090565b61050f838383600161071f565b505050565b60006105208484610473565b90507fffffffffffffffffffffffffffffffffffffffffffffffffffffffffffffffff8110156105a35781811015610593578281836040517ffb8f41b200000000000000000000000000000000000000000000000000000000815260040161058a93929190610e6c565b60405180910390fd5b6105a28484848403600061071f565b5b50505050565b600073ffffffffffffffffffffffffffffffffffffffff168373ffffffffffffffffffffffffffffffffffffffff160361061b5760006040517f96c6fd1e0000000000000000000000000000000000000000000000000000000081526004016106129190610ea3565b60405180910390fd5b600073ffffffffffffffffffffffffffffffffffffffff168273ffffffffffffffffffffffffffffffffffffffff160361068d5760006040517fec442f050000000000000000000000000000000000000000000000000000000081526004016106849190610ea3565b60405180910390fd5b6106988383836108f6565b505050565b600073ffffffffffffffffffffffffffffffffffffffff168273ffffffffffffffffffffffffffffffffffffffff160361070f5760006040517fec442f050000000000000000000000000000000000000000000000000000000081526004016107069190610ea3565b60405180910390fd5b61071b600083836108f6565b5050565b600073ffffffffffffffffffffffffffffffffffffffff168473ffffffffffffffffffffffffffffffffffffffff16036107915760006040517fe602df050000000000000000000000000000000000000000000000000000000081526004016107889190610ea3565b60405180910390fd5b600073ffffffffffffffffffffffffffffffffffffffff168373ffffffffffffffffffffffffffffffffffffffff16036108035760006040517f94280d620000000000000000000000000000000000000000000000000000000081526004016107fa9190610ea3565b60405180910390fd5b81600160008673ffffffffffffffffffffffffffffffffffffffff1673ffffffffffffffffffffffffffffffffffffffff16815260200190815260200160002060008573ffffffffffffffffffffffffffffffffffffffff1673ffffffffffffffffffffffffffffffffffffffff1681526020019081526020016000208190555080156108f0578273ffffffffffffffffffffffffffffffffffffffff168473ffffffffffffffffffffffffffffffffffffffff167f8c5be1e5ebec7d5bd14f71427d1e84f3dd0314c0f7b2291e5b200ac8c7c3b925846040516108e79190610ceb565b60405180910390a35b50505050565b600073ffffffffffffffffffffffffffffffffffffffff168373ffffffffffffffffffffffffffffffffffffffff160361094857806002600082825461093c9190610eed565b92505081905550610a1b565b60008060008573ffffffffffffffffffffffffffffffffffffffff1673ffffffffffffffffffffffffffffffffffffffff168152602001908152602001600020549050818110156109d4578381836040517fe450d38c0000000000000000000000000000000000000000000000000000000081526004016109cb93929190610e6c565b60405180910390fd5b8181036000808673ffffffffffffffffffffffffffffffffffffffff1673ffffffffffffffffffffffffffffffffffffffff16815260200190815260200160002081905550505b600073ffffffffffffffffffffffffffffffffffffffff168273ffffffffffffffffffffffffffffffffffffffff1603610a645780600260008282540392505081905550610ab1565b806000808473ffffffffffffffffffffffffffffffffffffffff1673ffffffffffffffffffffffffffffffffffffffff168152602001908152602001600020600082825401925050819055505b8173ffffffffffffffffffffffffffffffffffffffff168373ffffffffffffffffffffffffffffffffffffffff167fddf252ad1be2c89b69c2b068fc378daa952ba7f163c4a11628f55a4df523b3ef83604051610b0e9190610ceb565b60405180910390a3505050565b600081519050919050565b600082825260208201905092915050565b60005b83811015610b55578082015181840152602081019050610b3a565b60008484015250505050565b6000601f19601f8301169050919050565b6000610b7d82610b1b565b610b878185610b26565b9350610b97818560208601610b37565b610ba081610b61565b840191505092915050565b60006020820190508181036000830152610bc58184610b72565b905092915050565b600080fd5b600073ffffffffffffffffffffffffffffffffffffffff82169050919050565b6000610bfd82610bd2565b9050919050565b610c0d81610bf2565b8114610c1857600080fd5b50565b600081359050610c2a81610c04565b92915050565b6000819050919050565b610c4381610c30565b8114610c4e57600080fd5b50565b600081359050610c6081610c3a565b92915050565b60008060408385031215610c7d57610c7c610bcd565b5b6000610c8b85828601610c1b565b9250506020610c9c85828601610c51565b9150509250929050565b60008115159050919050565b610cbb81610ca6565b82525050565b6000602082019050610cd66000830184610cb2565b92915050565b610ce581610c30565b82525050565b6000602082019050610d006000830184610cdc565b92915050565b600080600060608486031215610d1f57610d1e610bcd565b5b6000610d2d86828701610c1b565b9350506020610d3e86828701610c1b565b9250506040610d4f86828701610c51565b9150509250925092565b600060ff82169050919050565b610d6f81610d59565b82525050565b6000602082019050610d8a6000830184610d66565b92915050565b600060208284031215610da657610da5610bcd565b5b6000610db484828501610c1b565b91505092915050565b60008060408385031215610dd457610dd3610bcd565b5b6000610de285828601610c1b565b9250506020610df385828601610c1b565b9150509250929050565b7f4e487b7100000000000000000000000000000000000000000000000000000000600052602260045260246000fd5b60006002820490506001821680610e4457607f821691505b602082108103610e5757610e56610dfd565b5b50919050565b610e6681610bf2565b82525050565b6000606082019050610e816000830186610e5d565b610e8e6020830185610cdc565b610e9b6040830184610cdc565b949350505050565b6000602082019050610eb86000830184610e5d565b92915050565b7f4e487b7100000000000000000000000000000000000000000000000000000000600052601160045260246000fd5b6000610ef882610c30565b9150610f0383610c30565b9250828201905080821115610f1b57610f1a610ebe565b5b9291505056fea2646970667358221220b03c23549ffc49977e00f47d36cdab1d146d6581e42a34a9407de718c7e52a8164736f6c634300081c0033",
  "devdoc": {
    "errors": {
      "ERC20InsufficientAllowance(address,uint256,uint256)": [
        {
          "details": "Indicates a failure with the `spender`s `allowance`. Used in transfers.",
          "params": {
            "allowance": "Amount of tokens a `spender` is allowed to operate with.",
            "needed": "Minimum amount required to perform a transfer.",
            "spender": "Address that may be allowed to operate on tokens without being their owner."
          }
        }
      ],
      "ERC20InsufficientBalance(address,uint256,uint256)": [
        {
          "details": "Indicates an error related to the current `balance` of a `sender`. Used in transfers.",
          "params": {
            "balance": "Current balance for the interacting account.",
            "needed": "Minimum amount required to perform a transfer.",
            "sender": "Address whose tokens are being transferred."
          }
        }
      ],
      "ERC20InvalidApprover(address)": [
        {
          "details": "Indicates a failure with the `approver` of a token to be approved. Used in approvals.",
          "params": {
            "approver": "Address initiating an approval operation."
          }
        }
      ],
      "ERC20InvalidReceiver(address)": [
        {
          "details": "Indicates a failure with the token `receiver`. Used in transfers.",
          "params": {
            "receiver": "Address to which tokens are being transferred."
          }
        }
      ],
      "ERC20InvalidSender(address)": [
        {
          "details": "Indicates a failure with the token `sender`. Used in transfers.",
          "params": {
            "sender": "Address whose tokens are being transferred."
          }
        }
      ],
      "ERC20InvalidSpender(address)": [
        {
          "details": "Indicates a failure with the `spender` to be approved. Used in approvals.",
          "params": {
            "spender": "Address that may be allowed to operate on tokens without being their owner."
          }
        }
      ]
    },
    "events": {
      "Approval(address,address,uint256)": {
        "details": "Emitted when the allowance of a `spender` for an `owner` is set by a call to {approve}. `value` is the new allowance."
      },
      "Transfer(address,address,uint256)": {
        "details": "Emitted when `value` tokens are moved from one account (`from`) to another (`to`). Note that `value` may be zero."
      }
    },
    "kind": "dev",
    "methods": {
      "allowance(address,address)": {
        "details": "See {IERC20-allowance}."
      },
      "approve(address,uint256)": {
        "details": "See {IERC20-approve}. NOTE: If `value` is the maximum `uint256`, the allowance is not updated on `transferFrom`. This is semantically equivalent to an infinite approval. Requirements: - `spender` cannot be the zero address."
      },
      "balanceOf(address)": {
        "details": "See {IERC20-balanceOf}."
      },
      "decimals()": {
        "details": "Returns the number of decimals used to get its user representation. For example, if `decimals` equals `2`, a balance of `505` tokens should be displayed to a user as `5.05` (`505 / 10 ** 2`). Tokens usually opt for a value of 18, imitating the relationship between Ether and Wei. This is the default value returned by this function, unless it's overridden. NOTE: This information is only used for _display_ purposes: it in no way affects any of the arithmetic of the contract, including {IERC20-balanceOf} and {IERC20-transfer}."
      },
      "name()": {
        "details": "Returns the name of the token."
      },
      "symbol()": {
        "details": "Returns the symbol of the token, usually a shorter version of the name."
      },
      "totalSupply()": {
        "details": "See {IERC20-totalSupply}."
      },
      "transfer(address,uint256)": {
        "details": "See {IERC20-transfer}. Requirements: - `to` cannot be the zero address. - the caller must have a balance of at least `value`."
      },
      "transferFrom(address,address,uint256)": {
        "details": "See {IERC20-transferFrom}. Skips emitting an {Approval} event indicating an allowance update. This is not required by the ERC. See {xref-ERC20-_approve-address-address-uint256-bool-}[_approve]. NOTE: Does not update the allowance if the current allowance is the maximum `uint256`. Requirements: - `from` and `to` cannot be the zero address. - `from` must have a balance of at least `value`. - the caller must have allowance for ``from``'s tokens of at least `value`."
      }
    },
    "version": 1
  },
  "userdoc": {
    "kind": "user",
    "methods": {},
    "version": 1
  },
  "storageLayout": {
    "storage": [
      {
        "astId": 159,
        "contract": "contracts/TestERC20.sol:TestERC20",
        "label": "_balances",
        "offset": 0,
        "slot": "0",
        "type": "t_mapping(t_address,t_uint256)"
      },
      {
        "astId": 165,
        "contract": "contracts/TestERC20.sol:TestERC20",
        "label": "_allowances",
        "offset": 0,
        "slot": "1",
        "type": "t_mapping(t_address,t_mapping(t_address,t_uint256))"
      },
      {
        "astId": 167,
        "contract": "contracts/TestERC20.sol:TestERC20",
        "label": "_totalSupply",
        "offset": 0,
        "slot": "2",
        "type": "t_uint256"
      },
      {
        "astId": 169,
        "contract": "contracts/TestERC20.sol:TestERC20",
        "label": "_name",
        "offset": 0,
        "slot": "3",
        "type": "t_string_storage"
      },
      {
        "astId": 171,
        "contract": "contracts/TestERC20.sol:TestERC20",
        "label": "_symbol",
        "offset": 0,
        "slot": "4",
        "type": "t_string_storage"
      },
      {
        "astId": 792,
        "contract": "contracts/TestERC20.sol:TestERC20",
        "label": "DECIMALS",
        "offset": 0,
        "slot": "5",
        "type": "t_uint8"
      }
    ],
    "types": {
      "t_address": {
        "encoding": "inplace",
        "label": "address",
        "numberOfBytes": "20"
      },
      "t_mapping(t_address,t_mapping(t_address,t_uint256))": {
        "encoding": "mapping",
        "key": "t_address",
        "label": "mapping(address => mapping(address => uint256))",
        "numberOfBytes": "32",
        "value": "t_mapping(t_address,t_uint256)"
      },
      "t_mapping(t_address,t_uint256)": {
        "encoding": "mapping",
        "key": "t_address",
        "label": "mapping(address => uint256)",
        "numberOfBytes": "32",
        "value": "t_uint256"
      },
      "t_string_storage": {
        "encoding": "bytes",
        "label": "string",
        "numberOfBytes": "32"
      },
      "t_uint256": {
        "encoding": "inplace",
        "label": "uint256",
        "numberOfBytes": "32"
      },
      "t_uint8": {
        "encoding": "inplace",
        "label": "uint8",
        "numberOfBytes": "1"
      }
    }
  }
}